S01000004C574D5F4D5353592E7372656379
S113000099C00000B7C00000B5C00000B3C0000034
S1130010B1C0000020C400006AC40000ABC00000EE
S1130020A9C00000A7C00000A5C00000A3C0000034
S1130030A1C00000E1C400009DC000009BC00000FE
S113004099C0000097C0000095C0000093C0000054
S113005091C000008FC000008DC000008BC0000064
S113006089C0000087C0000085C0000083C0000074
S113007081C000007FC000007DC000007BC0000084
S113008079C0000077C0000075C0000073C0000094
S113009080C5000062C500006DC000006BC0000098
S11300A069C0000067C0000096C4000063C000007F
S11300B061C000005FC000005DC000005BC00000C4
S11300C059C0000057C0000055C0000053C00000D4
S11300D051C000004FC000004DC000004BC00000E4
S11300E049C0000047C0000045C0000043C00000F4
S11300F041C000003FC000003DC000003BC0000004
S113010039C0000037C0000035C0000033C0000013
S113011031C000002FC000002DC000002BC0000023
S113012029C0000027C0000025C0000023C0000033
S113013021C0000011241FBECFEFD1E8DEBFCDBF28
S113014000E00CBF13E0A0E0B2E0E8ECF9E200E06C
S11301500BBF02C007900D92A232B107D9F72BE171
S1130160A2E2B3E001C01D92A738B207E1F7E4D2DE
S11301700C94E21445CF82E192E09F938F930E9406
S1130180B7112A9A8AEB8A95F1F700C02A980F9042
S11301900F9008951B99FECF28E130E080E090E0B5
S11301A0DC012A9A42E04A95F1F700C0880F991FB2
S11301B0AA1FBB1F2A981B9B03C00196A11DB11D3A
S11301C042E04A95F1F700C02150310951F72A9ACB
S11301D022E02A95F1F700C02A98BC01CD0180588D
S11301E00895CF92DF92EF92FF92CF93C9E1C12C91
S11301F0D12C7601CFDFC60ED71EE81EF91EC150E2
S1130200C9F7C701B60129E130E040E050E00E949F
S1130210E11020932A0330932B0340932C03509333
S11302202D0320932E0330932F03409330035093D8
S113023031035F934F933F932F9389E292E09F930F
S11302408F930E94B7110F900F900F900F900F9003
S11302500F90CF91FF90EF90DF90CF900895809111
S11302602E0390912F03A0913003B0913103892B79
S11302708A2B8B2B09F4B5DF60912E0370912F0329
S113028080913003909131030895CF92DF92EF92E1
S1130290FF92CF93DF93C0E0D0E0C12CD12C760144
S11302A079DFC60ED71EE81EF91E2196CA30D10585
S11302B0B9F7C701B6012AE030E040E050E00E94FF
S11302C0E11020932A0330932B0340932C03509383
S11302D02D035F934F933F932F9382E592E09F9377
S11302E08F930E94B71160912A0370912B03809120
S11302F02C0390912D030F900F900F900F900F905F
S11303000F90DF91CF91FF90EF90DF90CF90089501
S1130310CF92DF92EF92FF920F931F93B6DF8091FB
S11303202A0390912B03A0912C03B0912D030091EB
S11303302E0310912F032091300330913103801745
S11303409107A207B307A8F1C0902203D09023031A
S1130350E0902403F0902503C114D104E104F104D6
S1130360A9F4801B910BA20BB30B689413F8B695F8
S1130370A795979587951694D1F780932603909324
S11303802703A0932803B09329031BC0BC01CD010C
S1130390601B710B820B930BA70196010E94E11065
S11303A02093260330932703409328035093290373
S11303B008C010922603109227031092280310926B
S11303C02903809129038F93809128038F9380912F
S11303D027038F93809126038F9386E692E09F9361
S11303E08F930E94B7116091260370912703809127
S11303F02803909129030F900F900F900F900F9066
S11304000F901F910F91FF90EF90DF90CF90089580
S1130410CF92DF92EF92FF9287E792E09F938F93C0
S11304200E94B7110F900F906599FECF2EDF6B01DC
S11304307C0115DFA7019601261B370B480B590BCE
S1130440CA01B90128EE33E040E050E00E94E11017
S113045020932203309323034093240350932503D2
S11304605F934F933F932F9389E992E09F938F93E8
S11304700E94B7110F900F900F900F900F900F9054
S1130480FF90EF90DF90CF90089510924404089568
S1130490CF93DF9380914404811126C0C0916903F6
S11304A0CC2311F14C2F50E06AE673E087ED93E022
S11304B00E947411E5E4F4E081E090E09683858382
S11304C0D1E0D783D08782E0818787ED93E093875B
S11304D08287C48785E492E096878587CF014DD4CF
S11304E010926903D0934404DF91CF9108958091D1
S11304F069038111CDCF08950F931F93CF938C017E
S1130500DC011796ED91FC91189780818F3429F0C6
S1130510F801818581111AC028C081818B34C1F70B
S1130520D80119968C91882309F446C0C0E0D801FB
S11305301796ED91FC911897EC0FF11D8081C0D2B4
S1130540CF5FF8018185C81790F336C0C0E0D801A9
S11305501796ED91FC911897EC0FF11D8081B0D2A4
S1130560CF5FF8018185C81790F38091440481110D
S113057023C0D8012D913C918DE6ECE1F3E0A7ED89
S1130580B3E001900D928A95E1F7E5E4F4E0368357
S1130590258382E087838087818787ED93E0938733
S11305A0828786E0848785E492E096878587CF01F9
S11305B0E4D381E08093440481E0CF911F910F91B3
S11305C008951F93CF93DF93A3DE2AE040E553E021
S11305D00E9488118091650390916603A09167033E
S11305E0B0916803AC01BD014F5F5F4F6F4F7F4F08
S11305F040936503509366036093670370936803A5
S1130600BF93AF939F938F9385EC92E09F938F93C7
S11306101F921EE11F93C2E3D3E0DF93CF930E94A6
S1130620CA11FE0101900020E9F7319780E290E0C1
S11306309183808360E573E0CE010E947D11DE0129
S11306400D900020E9F7119785E0E9EDF2E00190C3
S11306500D928A95E1F7DF93CF938EED92E09F930D
S11306608F930E94B711109364038DB79EB70E96B3
S11306700FB6F8949EBF0FBE8DBF809144048111C4
S113068021C08DE6FE01A7EDB3E001900D928A959D
S1130690E1F7E5E4F4E081E090E09683858382E08D
S11306A087838087818787ED93E0938782878EE1B4
S11306B0848785E492E096878587CF015ED381E0C5
S11306C080934404DF91CF911F910895EF92FF929C
S11306D01F93CF93DF937C01892B01F1C0E0D0E01D
S11306E016D2182F8D3029F48DE0EAD18AE0E8D1B2
S11306F011C0809169038D3609F4CADEE091690363
S1130700ED3640F481E08E0F80936903F0E0E65902
S1130710FC4F10832196EC16FD0611F783E694E056
S11307200E94EB0F83E694E00E944210DF91CF9188
S11307301F91FF90EF900895249A2C9A259A2D9A50
S11307406C98749AEC9AEAE6F0E080818260808387
S11307508081816080836D98759AED9A8081826032
S11307608083808181608083789461E080E096E971
S11307700E94B810C1E8DBE104E012E01B830A83A5
S1130780229A2A9823982B9861E080E096E90E94A7
S1130790B8101B830A83229A2A9823982B98EBDC9F
S11307A020DD0E94760F60E076E980E090E033D1AE
S11307B083E786D103E614E00F2EF4E18F2E912C0B
S11307C0A12CB12CF02D0F2EF7E76F2EF2E07F2E27
S11307D0F02DC6E5D4E00F2EF8E8CF2EF3E1DF2E9E
S11307E0E12CF12CF02D0F2EF1EE4F2EF2E05F2EC6
S11307F0F02D0E947D0F24D2809170048111F9CFD5
S113080080E090E077D289E690E07BD28FE00E948E
S1130810A50E81E00E94A10E6CE772E081E078D21F
S11308206CE772E082E074D2F80186829782A08637
S1130830B186128674866386CE82DF82E886F98664
S1130840332433943A865C864B86CE010E94421050
S113085030927004CECF1F920F920FB60F921124D4
S11308600BB60F922F933F934F935F936F937F93A6
S11308708F939F93AF93BF93EF93FF93EC982FEFD6
S113088034E38CE0215030408040E1F700C00000A8
S11308908DEE92E09F938F930E94B7116CDCA1DCE4
S11308A095B180E1982795B99FEF24E33CE09150FE
S11308B020403040E1F700C0000095B1892785B998
S11308C0E49AEC9A0F900F90FF91EF91BF91AF9142
S11308D09F918F917F916F915F914F913F912F9154
S11308E00F900BBE0F900FBE0F901F9018951F9284
S11308F00F920FB60F9211240BB60F922F933F93C2
S11309004F935F936F937F938F939F93AF93BF9313
S1130910EF93FF93ED982FEF34E38CE021503040B8
S11309208040E1F700C000008AEF92E09F938F932C
S11309300E94B7116DDD95B180E2982795B99FEFBC
S113094024E33CE0915020403040E1F700C0000037
S113095095B1892785B9E59AED9A0F900F90FF918B
S1130960EF91BF91AF919F918F917F916F915F9123
S11309704F913F912F910F900BBE0F900FBE0F9090
S11309801F90189514BE0FB6F894A8958091600036
S1130990886180936000109260000FBEE1E6F0E091
S11309A080E880831082789401C008951092581BC7
S11309B080E197E29093A9008093A800E1EAF0E037
S11309C088E08083808182608083E2E7F0E0808138
S11309D08260808308951F920F920FB60F921124A4
S11309E08F938091581B8F5F8093581B8F910F902A
S11309F00FBE0F901F9018951F920F920FB60F9273
S1130A0011248F9381E0809371048F910F900FBE16
S1130A100F901F901895DC01CB01880F991FAA1F16
S1130A20BB1F880F991FAA1FBB1F9C01AD01220F7A
S1130A30331F441F551F220F331F441F551F60E0EF
S1130A4074E284EF90E00E94E110BA01A9014150E0
S1130A50510961097109BB27A72F962F852F809310
S1130A60CD004093CC0082E08093C80088E9809355
S1130A70C90086E08093CA00E0EAF7E08FE096E0E0
S1130A809187808780E991E0958384831782168219
S1130A901182108213821282E5E0F6E024E734E04A
S1130AA0318720879583848317821682118210826E
S1130AB01382128281E08093730410927204089569
S1130AC0CF93DF93E0EAF7E0268137816481758173
S1130AD026173707C9F0C085D18542815381DA01D1
S1130AE01196B383A283FE01E40FF51F80836A1776
S1130AF07B0721F41092A3071092A2072F5F3F4FA8
S1130B003093A7072093A607DF91CF9108954FB79D
S1130B10F894E5E0F6E02085318580819181BC017F
S1130B206F5F7F4F71836083D901A80FB91F8C91C8
S1130B3060817181248135816217730721F41092D9
S1130B40060610920506E5E0F6E02681378121507D
S1130B503109378326834FBF08951F920F920FB632
S1130B600F9211240BB60F928F93EF93FF9381E0B2
S1130B7080937304E9ECF0E080818F7D8083FF91A2
S1130B80EF918F910F900BBE0F900FBE0F901F909F
S1130B9018951F920F920FB60F9211240BB60F9255
S1130BA02F933F934F935F936F937F938F939F9371
S1130BB0AF93BF93EF93FF938091C8002091CE0031
S1130BC08C7159F5E5E0F6E0468157818481958181
S1130BD04817590711F14085518582819381BC01E1
S1130BE06F5F7F4F73836283DA01A80FB91F2C9361
S1130BF022813381848195812817390721F4109249
S1130C00080610920706E5E0F6E0868197810196D2
S1130C109783868381E080937204FF91EF91BF9163
S1130C20AF919F918F917F916F915F914F913F9180
S1130C302F910F900BBE0F900FBE0F901F90189521
S1130C408091A6079091A707009769F120917304FA
S1130C50222349F1E0EAF7E0608571852081318142
S1130C60A9014F5F5F4F51834083DB01A20FB31F84
S1130C702C91648175814617570721F41092A107BE
S1130C801092A00701979093A7078093A6079FB798
S1130C90F8942093CE00E9ECF0E0808180628083B8
S1130CA0109273049FBF2FB7F8949091720410921E
S1130CB0720440910B0650910C062FBF992311F03A
S1130CC0CA0104CD0895E9E5FBE11482158211827D
S1130CD0108217A216A2EFE5FBE18FE79BE11192C8
S1130CE01192E817F907D9F742D660D30DD140D055
S1130CF092C1089590935A1B8093591B0C94BB0E78
S1130D00089590935C1B80935B1B0C94A90E08952B
S1130D10E82FF0E0EE0FFF1FE15AF44E7183608379
S1130D2008958BD320D74DC00895E091AA07F09180
S1130D30AB073097D9F0228133818217930789F466
S1130D4005C0228133812817390759F4DC01AD57D6
S1130D50BF4F2C91278713962C91208B22E024835C
S1130D6005C00190F081E02D309759F711C1089525
S1130D701092AB071092AA070895FC0114821786FB
S1130D8013821282A9E5BBE196968D919C91979767
S1130D90019697969C938E9396978091AA0790912B
S1130DA0AB07009739F411821082F093AB07E093FC
S1130DB0AA07089591838083F093AB07E093AA0771
S1130DC008950F931F93CF93DF93E091AA07F091B7
S1130DD0AB07309709F493C0EF018C81882321F08D
S1130DE0823009F466C085C09AD08C01009721F442
S1130DF082E08C838F8783C09B838A8381E08C838A
S1130E00F801E957FF4F85E996E091838083319794
S1130E10898582FB882780F980839985D8011B9670
S1130E208C911B9790FB80F91B968C931B9799854B
S1130E3093FB992790F990FB82F91B968C931B974F
S1130E40E9E5FBE184818F5F84831C968C931C9776
S1130E50808191811E969C938E931D978D819E8196
S1130E6050969C938E931F978885982F9F705196C8
S1130E708C915197807F892B51968C9351979F81A8
S1130E809295907F8F70892B51968C93F801EF5730
S1130E90FF4F4C8550E06A857B85808191810E945B
S1130EA07411F80191818C85890F8183C80182D5E1
S1130EB026C0EC17FD0741F4808191819093AB0724
S1130EC08093AA070AC0FC01808191818C179D0739
S1130ED0D1F78881998191838083E9E5FBE186A13B
S1130EE097A1019797A386A3ED85FE85CE01199559
S1130EF006C00990D881C02D209709F06ECFDF91EC
S1130F00CF911F910F910895ECEAF7E08AEB97E1F6
S1130F101082E757FF4FE817F907D1F7089580913A
S1130F20AC07882359F0E5E3F8E06AEB77E181E068
S1130F3090E0AC012081211122C002C040E050E0C9
S1130F4069E8649F9001659F300D1124C90184559F
S1130F50984FFC0111926A95E9F740E1FC01418345
S1130F60EF57FF4F2254384F31832083E9E5FBE1EB
S1130F7026A137A12F5F3F4F37A326A308950196DB
S1130F80E757FF4FE617F707A1F680E090E00895D2
S1130F90FC011082E9E5FBE186A197A1019797A3E3
S1130FA086A30895009741F0FC01E757FF4F87E1BE
S1130FB0EA3BF80718F012C0ECEAF7E080818823D6
S1130FC021F00FC0808181110FC0E757FF4F87E1E7
S1130FD0EA3BF807B8F380E090E0089580E090E001
S1130FE008958E2F9F2F08958E2F9F2F0895FC0113
S1130FF0DC01AD57BF4F1C92A9E5BBE114969C914F
S113100014979F5F14969C93149794878D919C9149
S1131010968785870895ABEBB7E180E090E04FEFCA
S11310205FEF11965C934E93FC01EE0FFF1FEE0FE2
S1131030FF1FEE0FFF1FE81BF90BE654F84E20814B
S11310402E7F208314961C9214970196179684364B
S1131050910539F708950F931F93CF93DF93EBEB2B
S1131060F7E120E030E0062F10E04081518148177D
S11310705907B1F4D901AA0FBB1FAA0FBB1FAA0FAE
S1131080BB1FA21BB30BA654B84E4C91469541709E
S1131090C42F40E0D42FC017D10711F4CD0108C0EC
S11310A02F5F3F4F379624363105F9F680E090E004
S11310B0DF91CF911F910F910895A0E0B0E0EAEB8A
S11310C0F7E1808180FD0DC08581882381F0109730
S11310D039F015969C911597891718F4DF0101C012
S11310E0DF0137968AE1E637F80759F7FD01808179
S11310F08D708063808380E88583CF010895FC012F
S1131100808180FD05C08FEF9FEF928381831582DC
S11311100895A1DF009721F0FC0183819481089553
S11311208FEF9FEF089597DF009709F0E8CF0895B8
S11311300F931F93CF93DF93FC0101851285112335
S11311402CF48585968508171907E1F58581968124
S11311500196C1F1EF0160E0858596857CDFFC0195
S1131160892BA1F08F8198850196F9F42091591B60
S113117030915A1B8F85988928173907B1F4148345
S1131180038380818F70806380830AC096DFFC01B3
S11311908D859E859283818389859A8594838383B3
S11311A0CD57DF4F888186830DC0838194810817D2
S11311B01907B1F39681DE01AD57BF4F8C91981793
S11311C0F0F2EECFDF91CF911F910F910895CF935D
S11311D0DF93FC01878590898F3F2FEF9207D9F128
S11311E0EF01638563FB662760F935DFDC01892B3A
S11311F091F18C9180FD2FC0FE01ED57FF4F80814E
S1131200811119C08C918F7080638C9315968C9189
S113121015978F5F15968C938F3FE9F4EFEBF7E109
S11312202BE73AE1808186958F5F80833796E217BA
S1131230F307C1F710C09C91892F82958F70815F4D
S11312408F70282F2295207F9F70922B9C93811161
S113125002C0CD0154DFDF91CF910895CF93DF9386
S1131260FC01878590898F3F2FEF920729F48FEF38
S11312709FEF908787830EC0238522FF03C090874A
S1131280878308C0EF01638563FB662760F941DF4C
S113129098878F83DF91CF910895AF92BF92CF92B9
S11312A0DF92EF92FF921F93CF93DF93EC011B85A4
S11312B013FB112710F9CF84D888612FC60129DFC9
S11312C0019659F0FE01E957FF4F118210823197C0
S11312D082E08083CE016ED322C0AD84BE841FDE43
S11312E07C010097D1F083DEF70181818A5F8183DD
S11312F0E957FF4F11821082F701B08AA786EF5792
S1131300FF4F0190F081E02D81E08083B282A182C1
S1131310D482C3821583C7014DD3CE0139DEDF9158
S1131320CF911F91FF90EF90DF90CF90BF90AF903F
S11313300895FC012185263049F40780F085E02DCD
S1131340658183819481EFDE81E0089580E00895D2
S1131350DC0119962C911997222371F01796ED91BF
S1131360FC9118972081222319F0213019F006C02E
S1131370B2C30895DECF089580E0089580E0089513
S1131380BC01E8E8FAE12AEB3AE140E051E090815F
S1131390992319F091509083452F3596E217F3075E
S11313A0B1F7442311F0CB016DC60895E8E8FAE1E2
S11313B08AEB9AE110823596E817F907D9F7E6E740
S11313C0FAE184E690E0A0E0B0E086839783A0870A
S11313D0B187128680EC99E09487838768EA79E084
S11313E080E096CC0895CF93DF93DC01ED91FC91DE
S11313F0119721812838F1F420812F7D2134D1F4F3
S113140012962C912031B0F0EC0189DD009791F017
S113141020E2FC0120832A8121832B81ED57FF4F99
S113142020832C81319620834A8150E06881798120
S113143002965AD7DF91CF9108952F923F924F92FF
S11314405F926F927F928F929F92AF92BF92CF9250
S1131450DF92EF92FF920F931F93CF93DF93CDB759
S1131460DEB72C970FB6F894DEBF0FBECDBF00E0F9
S113147010E00F2EF4E2BF2EF02D0F2EF9E5EF2E23
S1131480FBE1FF2EF02D552453946894AA24A4F86C
S11314906894772473F86894662462F8312C212CBC
S11314A00F2EFFE14F2EF02DCC24C394D12CDAC1A2
S11314B0D8018C91823209F405C118F4803241F0CC
S11314C0D1C1833209F4C9C1843209F4C9C1CAC182
S11314D0F801B0828385982F9A7009F0C3C12581E1
S11314E036812F3F3F4F91F4D8011F968D919C91E7
S11314F05097F701208131812817390719F0019697
S113150009F0B0C1E2E2D801EC93ACC1D8011F9656
S11315102D913C9150972F3F3F4F11F480FDA2C174
S1131520F70120813181D8011D968D919C911E97E0
S11315302817390709F496C1C801FADDE4E8FAE18D
S113154080E090E0832C922C9C014481442309F494
S113155074C0D8011D966D917C911E974081518174
S11315606417750709F06AC01C968C911C97F901E1
S1131570EE0FFF1FEE0FFF1FE20FF31FEC57F54EA8
S11315809281981B983008F03EC0F901EE0FFF1FBE
S1131590EE0FFF1FE20FF31FEC57F54E8381482F28
S11315A050E0092E02C0559547950A94E2F740FF92
S11315B017C0F7012081318117968D919C9118975E
S11315C02817390709F04EC11B966C911B9763FBD2
S11315D0662760F91F968D919C915097A4DD42C1B6
S11315E0F901EE0FFF1FEE0FFF1F2E0F3F1FF90132
S11315F0EC57F54E960102C0220F331F9A95E2F77D
S1131600822B838336C1F901EE0FFF1FEE0FFF1FFC
S11316102E0F3F1FF901EC57F54E82838381282F4B
S113162030E09195A90102C0440F551F9A95E2F745
S1131630CA018160838344821CC14F01019635969F
S11316408A30910509F080CF8114910409F40AC10C
S1131650D8011D968D919C911E97F40191838083EE
S11316601C968C9182835382448286E79AE10AD540
S113167000C1D7012D913C91F801878590892817E5
S1131680390781F0438542FD0BC0C801E1D1D70180
S11316902D913C91F801878590892817390711F01D
S11316A0019621F4E2E2D801EC93DCC0D80117964C
S11316B08D919C9118978217930709F0D3C0E3E2A8
S11316C0EC93D0C01092831AD80151968C91519703
S11316D082958F70E82FF0E0EE0FFF1FE15AF44E71
S11316E00190F081E02D309709F460C01D962D9192
S11316F03C911E973A8329831F964D915C91509794
S11317005C834B8351969C9151979F709D838E83EC
S1131710AF57BF4F8D919C9199878887B8016E5FB1
S11317207F4F861B970BD80111969C911197981B9C
S11317309A87AD57BF4F8C918B8711968C918C876C
S1131740D8011B969C91692F637092FD02C080E0C2
S113175001C080E2862B93FD02C090E001C090E4BA
S1131760892B4F3F5F4F11F090E001C0962D892BDC
S1131770D80119964D915C911A972417350711F0E9
S113178090E001C0972D892B8F83D80115962D9158
S11317903C9116972F3F3F4F11F090E001C09A2DD6
S11317A0892B8F83CE010196199501C080E0F80141
S11317B0938590FF80E0D80117962D913C9118975E
S11317C02F3F3F4F69F4F70140815181D8011F96A3
S11317D02D913C9150974217530711F493FF852D97
S11317E0F801258136812F3F3F4FA1F1D7012D917B
S11317F03C912F3F3F4F71F1882361F190DB4C0105
S1131800009741F1F4DBF40181818D5F8183E95715
S1131810FF4F11821082D8011B968C911B978695DD
S11318208170F401938580FB91F993871D968D91C6
S11318309C911E97908B8787EF57FF4F0190F08103
S1131840E02D10828091831A82831C968C9181836F
S1131850C401B0D0D801BC9205C0C8011EDD02C0CD
S1131860C80196DBC8019EDB8C01892B09F020CED0
S113187007C0F80187819085019609F008CFF9CE59
S11318802C960FB6F894DEBF0FBECDBFDF91CF917B
S11318901F910F91FF90EF90DF90CF90BF90AF908A
S11318A09F908F907F906F905F904F903F902F907C
S11318B00895EF92FF920F931F93CF937C0110E052
S11318C080E090E001E0C3E113C0FC0120812131FC
S11318D079F4EC57FF4F2081318121503109318354
S11318E02083232B21F4FC01C083102F01C0102F6F
S11318F059DB009751F7112311F0C701C3D3CF91DE
S11319001F910F91FF90EF900895EF92FF920F9324
S11319101F93CF93DF937C0110E080E090E001E01F
S1131920D7E1C0E116C0FC012081263191F4EC57C7
S1131930FF4F208131812150310931832083232BB2
S113194039F4FC01D083ED57FF4FC083102F01C041
S1131950102F28DB009739F7112311F0C70192D318
S1131960DF91CF911F910F91FF90EF900895109206
S1131970D11A1092D01AE3ECFAE182E390E0A0E0ED
S1131980B0E086839783A087B187128685E89CE0C0
S113199094878387E6EBFAE18AE090E0A0E0B0E088
S11319A086839783A087B187128689E59CE0948714
S11319B083870895CF93DF93EC01FC01EA57FF4F2F
S11319C0808181FF03C092E1988302C092E19883F1
S11319D0FE01ED57FF4F108280FF05C02FEF3FEF50
S11319E03E832D8306C020915B1B30915C1B3E839C
S11319F02D83857019F4CE0131DC04C08F8598895C
S1131A0098878F83E9E5FBE1808191819A878987B3
S1131A1085818F5F85838C838F819885019669F496
S1131A2081E498E89B838A8351D4CC57DF4F877035
S1131A30992701969983888308C081E698E89B8357
S1131A408A83CC57DF4F19821882DF91CF91089592
S1131A500F931F93CF93DF938C0161DAEC01892BF1
S1131A60A9F182E18883F80181818983FE01ED5720
S1131A70FF4F10822BD4FE01EC57FF4F877099273C
S1131A80019691838083339611821082F8014181FB
S1131A9050E0B8016E5F7F4FCE01029625D481E4F9
S1131AA098E89B838A838FEF9FEF98878F83F80151
S1131AB0858196819E838D83E9E5FBE18081918117
S1131AC09A87898785818F5F85838C83DF91CF9106
S1131AD01F910F910895CF93DF93FC01218523304B
S1131AE0D9F410C0FC012081263189F43485298180
S1131AF032130DC027E120832A81EA57FF4F208348
S1131B0081E00BC0FC01C781D08580E090E04ADA17
S1131B10009741F780E001C080E0DF91CF91089504
S1131B20E091D01AF091D11A813021F048F082303E
S1131B3019F004C080E205C081E203C081E001C065
S1131B4080E0DF01AD57BF4F8C9385E18083109215
S1131B50D11A1092D01AE9E5FBE186A197A1019769
S1131B6097A386A308959F92AF92BF92CF92DF92DC
S1131B70EF92FF920F931F93CF93DF93C0E0D0E0D7
S1131B800F2EF4E1AF2EF02D09E51BE10F2EF7E146
S1131B90DF2EF02D0F2EF6E19F2EF02D0F2EF9E201
S1131BA0EF2EF12CF02D0F2EF3E1CF2EF02D0F2E72
S1131BB0F1E1BF2EF02D60C088818331C1F018F4AB
S1131BC0823139F059C0853149F1873109F445C072
S1131BD053C0FE01EC57FF4F80819181892B29F07E
S1131BE0B88286EB9AE14ED247C0C88245C0809144
S1131BF0D01A9091D11A892B09F03EC0D093D11AF2
S1131C00C093D01AA8826981CE010296CBD0F80184
S1131C1086A197A1019697A386A32EC0FE01ED5736
S1131C20FF4F8081811117C02D853E85F801808189
S1131C3091812817390769F48B8580FF0AC098823F
S1131C40FE01EC57FF4FF182E08283EC9AE11AD255
S1131C5013C0D88211C0D8820FC0CE01B8DAFE01F9
S1131C60E957FF4F0190F081E02D309719F4CE0130
S1131C708FD902C0CE011995CE0194D9EC01892BDC
S1131C8009F09ACFDF91CF911F910F91FF90EF90C0
S1131C90DF90CF90BF90AF909F9008958091D21A1B
S1131CA0982F9F70E4E5F1E08081807F892B808309
S1131CB08091D21A882329F08091D31A80935301FA
S1131CC008958091D31A982F9F71E8E4F1E0808100
S1131CD0807E892B8083089593E090934201E1E410
S1131CE0F1E090819F719830E1F780934201E1E443
S1131CF0F1E090819F718913FCCF089588E0ECDFB7
S1131D008FEF80934F018091D41A882311F086E1DC
S1131D10E3CF0895E9E3F1E080818160808310924C
S1131D20D41A1092D21A81E08093551B88E0D4DF34
S1131D308BEE80935601ECE4F1E08081806880832F
S1131D4008958093D41ADACF08958093D31AA6CF36
S1131D500895CF93DF931F921F92CDB7DEB79A8376
S1131D608983809362018A81809363010F900F902D
S1131D70DF91CF910895CF93DF931F921F92CDB738
S1131D80DEB79A838983809360018A81809361019D
S1131D9099818A81890F80936D010F900F90DF9153
S1131DA0CF9108951F93CF93DF93182FD92FC62F68
S1131DB089E192DF8FEF80934F0182E08C0F809353
S1131DC08001CC2371F0A12FBD2FC1506C2F70E086
S1131DD06E577E4FE1E8F1E08D918193E617F707A6
S1131DE0D9F783E08093551B82E080934201DF9111
S1131DF0CF911F9108951F93CF93DF9300D01F922B
S1131E001F92CDB7DEB78091551B823009F465C0AF
S1131E1080914F0183FF3EC0A0917B016A2F70E047
S1131E20AB014F5F5F4F80E090E020E0FC01E058A1
S1131E30FE4F3081FC01EB52F54E30832F5F822F31
S1131E4090E08417950794F385ED9AE19A8389834A
S1131E50A250AB83FB01EB52F54E80818C838091C1
S1131E6047018A558D83CE010196BDDAE1E4F1E0A4
S1131E7080818F718631E1F7EFE4F1E08081886041
S1131E808083ECE4F1E080818F77808380818068B7
S1131E90808323C080914F0186FF1FC08091410140
S1131EA08F718931A9F4109142011295169517701A
S1131EB049F0133021F0153021F013E003C011E094
S1131EC001C012E01BDF81E08093551B812F28DEC7
S1131ED0EFE4F1E08081806480830F900F900F9095
S1131EE00F900F90DF91CF911F9108950E94C2042B
S1131EF06DD010DF0C94630608957DDF0E94910677
S1131F00CCC008950F931F93CF93DF93EC0180917E
S1131F10561B9091571B009709F445C04E815F8171
S1131F2068857985FC0102811381248135814017FC
S1131F3051076207730760F0DC0117C00281138147
S1131F4024813581401751076207730768F403C081
S1131F50FC01A0E0B0E0041B150B260B370B028339
S1131F601383248335830AC0DF01401B510B620BAA
S1131F70730BED91FC911197309701F74A835B83C2
S1131F806C837D83109741F08D919C911197998377
S1131F908883CD93DC9315C099838883D093571B92
S1131FA0C093561B0EC0198218828E819F81A8850A
S1131FB0B9858A839B83AC83BD83D093571BC0931D
S1131FC0561BDF91CF911F910F9108951092571BCB
S1131FD01092561B0895CF93DF93A091561BB09196
S1131FE0571B109791F1A817B90751F50AC08E171E
S1131FF09F0729F5109731F0208131812D933C936F
S113200007C0FC01208131813093571B2093561B5C
S11320100190F081E02D3097C1F0428153816481B9
S11320207581EC018A819B81AC81BD81840F951FF0
S1132030A61FB71F82839383A483B58306C0DF01E1
S1132040ED91FC911197309791F6DF91CF9108951E
S1132050E091561BF091571B309771F0E817F90780
S113206021F40CC08E179F0759F00190F081E02DE8
S11320703097C1F780E0089580E0089581E00895E5
S113208081E00895CF93DF93EC01E2DF811102C078
S1132090CE0138DFDF91CF910895CF92DF92EF9296
S11320A0FF92CF93DF938091581B882309F459C082
S11320B08FB7F894C090581B1092581B8FBFD12C27
S11320C0E12CF12CCC0CDD1CEE1CFF1CD701C6014D
S11320D0880F991FAA1FBB1F880F991FAA1FBB1F18
S11320E0C80ED91EEA1EFB1EC091561BD091571B69
S11320F02097B9F18A819B81AC81BD81C816D9062C
S1132100EA06FB0610F1C81AD90AEA0AFB0A888112
S113211099819093571B8093561B8A85813011F4C3
S1132120CE01F0DEEB85FC85CE011995C091561BDE
S1132130D091571B2097A9F08A819B81AC81BD81E6
S1132140C816D906EA06FB06F0F68A819B81AC81A3
S1132150BD818C199D09AE09BF098A839B83AC8319
S1132160BD83DF91CF91FF90EF90DF90CF900895E2
S1132170CF93C62F9C0140E050E060E271EA87E013
S113218090E041D0215031093093CD002093CC0010
S113219088E18093C90086E08093CA00CC2329F0AB
S11321A0E9ECF0E0808180688083CF910895E8ECC9
S11321B0F0E0908195FFFDCF8093CE0080E090E029
S11321C00895A1E21A2EAA1BBB1BFD010DC0AA1F74
S11321D0BB1FEE1FFF1FA217B307E407F50720F08C
S11321E0A21BB30BE40BF50B661F771F881F991F07
S11321F01A9469F760957095809590959B01AC0150
S1132200BD01CF010895052E97FB16F400940FD05D
S113221057FD05D0D6DF07FC02D046F408C0509520
S11322204095309521953F4F4F4F5F4F08959095BE
S11322308095709561957F4F8F4F9F4F08958F9232
S11322409F92AF92BF92CF92DF92EF92FF92CF9381
S1132250DF93EC01688179818A819B816115710525
S11322608105910521F464E279ED8BE597E02DE198
S113227033EF41E050E0C7DF49015A019B01AC0153
S1132280A7EAB1E480D36B017C01ACEEB4EFA50105
S1132290940185D3DC01CB018C0D9D1DAE1DBF1DAA
S11322A0B7FF03C00197A109B04888839983AA8323
S11322B0BB839F77DF91CF91FF90EF90DF90CF901A
S11322C0BF90AF909F908F900895B9CF80E092E037
S11322D0B6CFA0E0B0E08093000290930102A093F7
S11322E00202B09303020895FB01DC0102C00190D5
S11322F00D9241505040D8F70895FB01DC010D9038
S11323000020E9F7119701900D920020E1F708955C
S1132310BB272A3051F4992342F4BDE2909580956D
S1132320709561957F4F8F4F9F4F01C0BB27FA0176
S1132330A62F6217710581059105330B30FB66F0FA
S1132340AA27660F771F881F991FAA1FA21710F0CC
S1132350A21B63953850A9F7A05DAA3308F0A95DC4
S1132360A19336F7B111B1931082CA0162C2CF931F
S1132370DF93CDB7DEB7AE014A5F5F4FFA016191DB
S11323807191AF018091831B9091841B3FD0DF91A9
S1132390CF9108950F931F93CF93DF93CDB7DEB7FB
S11323A02E970FB6F894DEBF0FBECDBF0E891F89DE
S11323B0888D998D26E02C831A83098397FF02C0A8
S11323C080E090E801979E838D83AE01445E5F4F69
S11323D06A8D7B8DCE01019619D04D815E8157FDAA
S11323E00AC02F813885421753070CF49A01F8016B
S11323F0E20FF31F10822E960FB6F894DEBF0FBEC5
S1132400CDBFDF91CF911F910F9108952F923F92ED
S11324104F925F926F927F928F929F92AF92BF92F0
S1132420CF92DF92EF92FF920F931F93CF93DF939C
S1132430CDB7DEB72B970FB6F894DEBF0FBECDBF76
S11324406C017B018A01FC0117821682838181FF62
S1132450BFC1CE0101963C01F6019381F70193FDC2
S1132460859193FF81917F01882309F4ADC1853261
S113247039F493FD859193FF81917F01853221F495
S1132480B60190E0E6D1E8CF912C212C312CFFE16C
S1132490F315D8F08B3279F038F4803279F0833246
S11324A0A1F4232D20611DC08D3261F0803369F4C5
S11324B0232D216016C0832D8260382EE32DE46025
S11324C03E2E2AC0F32DF8601DC037FC2DC020ED30
S11324D0280F2A3040F08E32B9F436FC75C1232D12
S11324E02064322E19C036FE06C08AE0989E200D64
S11324F01124922E11C0EAE02E9E200D1124222ECA
S1132500F32DF0623F2E08C08C3621F4832D8068B1
S1132510382E02C0883641F4F70193FD859193FF6C
S113252081917F018111B3CF982F9F7D9554933072
S113253028F40C5F1F4F9FE399830DC0833631F05D
S1132540833771F0833509F055C020C0F8018081CC
S113255089830E5F1F4F88248394912C530112C0EA
S11325602801F2E04F0E511CF801A080B18036FE24
S113257003C0692D70E002C06FEF7FEFC5014ED13B
S11325804C018201F32DFF773F2E15C0280122E074
S1132590420E511CF801A080B18036FE03C0692DA3
S11325A070E002C06FEF7FEFC5012DD14C01F32D18
S11325B0F0683F2E820133FC19C0822D90E088160A
S11325C09906A0F4B60180E290E043D12A94F5CFB5
S11325D0F50137FC859137FE81915F01B60190E0EA
S11325E038D121102A9421E0821A9108811491048F
S11325F079F7E1C0843611F0893639F5F80137FEF0
S113260007C060817181828193810C5F1F4F08C074
S113261060817181072E000C880B990B0E5F1F4F90
S1132620F32DFF763F2E97FF09C090958095709506
S113263061957F4F8F4F9F4FF0683F2E2AE030E027
S1132640A30143D1882E861844C0853731F4232D45
S11326502F7EB22E2AE030E025C0932D997FB92E2B
S11326608F36C1F018F4883579F0AEC0803719F090
S1132670883721F0A9C0E92FE061BE2EB4FE0DC059
S1132680FB2DF460BF2E09C034FE0AC0292F26603A
S1132690B22E06C028E030E005C020E130E002C0E0
S11326A020E132E0F801B7FE07C0608171818281C8
S11326B093810C5F1F4F06C06081718180E090E0C0
S11326C00E5F1F4FA30101D1882E8618FB2DFF77C3
S11326D03F2E36FE0DC0232D2E7FA22E891458F4D2
S11326E034FE0BC032FC09C0832D8E7EA82E05C09B
S11326F0B82CA32C03C0B82C01C0B92CA4FE0FC065
S1132700FE01E80DF11D8081803321F49A2D997E1C
S1132710A92E09C0A2FE06C0B394B39404C08A2DA6
S1132720867809F0B394A3FC10C0A0FE06C0B214CE
S113273080F4280C922C9B180DC0B21458F4B601E6
S113274080E290E086D0B394F8CFB21418F42B183A
S113275002C0982C212CA4FE0FC0B60180E390E0A7
S113276078D0A2FE16C0A1FC03C088E790E002C0A6
S113277088E590E0B6010CC08A2D867851F0A1FE60
S113278002C08BE201C080E2A7FC8DE2B60190E0BA
S113279060D0891430F4B60180E390E05AD09A9462
S11327A0F8CF8A94F301E80DF11D8081B60190E021
S11327B050D08110F6CF222009F44ECEB60180E22B
S11327C090E047D02A94F7CFF6018681978102C022
S11327D08FEF9FEF2B960FB6F894DEBF0FBECDBFE1
S11327E0DF91CF911F910F91FF90EF90DF90CF90E9
S11327F0BF90AF909F908F907F906F905F904F901D
S11328003F902F900895FC01059061507040011095
S1132810D8F7809590958E0F9F1F0895FC01615005
S1132820704001900110D8F7809590958E0F9F1FEE
S11328300895DC01FC01672F71917723E1F732974A
S113284004C07C916D9370836291AE17BF07C8F387
S113285008950F931F93CF93DF93FB01238121FDF1
S113286003C08FEF9FEF2CC022FF16C04681578113
S1132870248135814217530744F4A081B1819D011D
S11328802F5F3F4F318320838C93268137812F5FC5
S11328903F4F3783268314C08B01EC01FB01008476
S11328A0F185E02D1995892BE1F6D80116968D91C5
S11328B09C911797019617969C938E931697CE0129
S11328C0DF91CF911F910F910895FA01AA27283023
S11328D051F1203181F1E8946F936E7F6E5F7F4FE9
S11328E08F4F9F4FAF4FB1E03ED0B4E03CD0670F65
S11328F0781F891F9A1FA11D680F791F8A1F911DB8
S1132900A11D6A0F711D811D911DA11D20D009F407
S113291068943F912AE0269F11243019305D319349
S1132920DEF6CF010895462F4770405D4193B3E032
S11329300FD0C9F7F6CF462F4F70405D4A3318F0D9
S1132940495D31FD4052419302D0A9F7EACFB4E08A
S1132950A6959795879577956795BA95C9F7009742
S11329606105710508959B01AC010A2E06945795E3
S1132970479537952795BA95C9F7620F731F841F3A
S1132980951FA01D08950FD0A59F900DB49F900D85
S1132990A49F800D911D11240895B7FFF4CFF3DF98
S11329A0821B930B0895A29FB001B39FC001A39F04
S11329B0700D811D1124911DB29F700D811D112474
S10B29C0911D0895F894FFCF66
S11329C8010000000000000300000000D710000010
S11329D800000A0D20507265766F646E696B207270
S11329E8657365746F76616E000D0A485837313126
S11329F85F5A45524F20686F646E6F7461206E6130
S1132A0873746176656E61206E613A20256C640D7D
S1132A180A000D0A5072756D65725A45524F3A2074
S1132A28256C640D0A000D0A5A6D6572656E6F3A5D
S1132A3820256C640D0A000D0A566C6F7A20316BE0
S1132A4867207A6E6F7675207A6D61636B6E692084
S1132A58313A20256C640D0A000D0A4B616C6962D9
S1132A68726F76616E6F206E6120316B672E206BFA
S1132A78616C20686F646E6F7461206A653D2025FF
S1132A886C640D0A00256C752E204D6572656E699F
S1132A98206369736C6F3A200020670A0D00506F39
S1132AA8736C616E6F3A0D0A25730D0A00526573D3
S1132AB86574756A692E2E2E2E004E6173746176C4
S1132AC8756A69207A6176617A69206F64706F76B5
S1132AD86964616A69636920316B67004F4B0D0A49
S1052AE80000E8
S9030000FC
